{
  "contractName": "ResultDapp",
  "abi": [
    {
      "inputs": [],
      "stateMutability": "nonpayable",
      "type": "constructor"
    },
    {
      "inputs": [
        {
          "internalType": "address",
          "name": "_addressToWhitelist",
          "type": "address"
        }
      ],
      "name": "addUser",
      "outputs": [],
      "stateMutability": "nonpayable",
      "type": "function"
    },
    {
      "inputs": [
        {
          "internalType": "address",
          "name": "_addressToUnwhitelist",
          "type": "address"
        }
      ],
      "name": "deleteUser",
      "outputs": [],
      "stateMutability": "nonpayable",
      "type": "function"
    },
    {
      "inputs": [
        {
          "internalType": "address",
          "name": "_address",
          "type": "address"
        }
      ],
      "name": "verifyUser",
      "outputs": [
        {
          "internalType": "bool",
          "name": "",
          "type": "bool"
        }
      ],
      "stateMutability": "view",
      "type": "function",
      "constant": true
    },
    {
      "inputs": [],
      "name": "getAllWhitelistedAddresses",
      "outputs": [
        {
          "internalType": "address[]",
          "name": "",
          "type": "address[]"
        }
      ],
      "stateMutability": "view",
      "type": "function",
      "constant": true
    },
    {
      "inputs": [
        {
          "internalType": "uint256",
          "name": "_batchId",
          "type": "uint256"
        },
        {
          "internalType": "bytes32",
          "name": "_studentRecordsRoot",
          "type": "bytes32"
        },
        {
          "internalType": "string",
          "name": "IPFSHash",
          "type": "string"
        }
      ],
      "name": "addBatch",
      "outputs": [],
      "stateMutability": "nonpayable",
      "type": "function"
    },
    {
      "inputs": [
        {
          "internalType": "uint256",
          "name": "_batchId",
          "type": "uint256"
        },
        {
          "internalType": "bytes32",
          "name": "_newBatchRoot",
          "type": "bytes32"
        },
        {
          "internalType": "string",
          "name": "IPFSHash",
          "type": "string"
        }
      ],
      "name": "editBatch",
      "outputs": [],
      "stateMutability": "nonpayable",
      "type": "function"
    },
    {
      "inputs": [
        {
          "internalType": "uint256",
          "name": "_batchId",
          "type": "uint256"
        }
      ],
      "name": "getBatch",
      "outputs": [
        {
          "components": [
            {
              "internalType": "uint256",
              "name": "batchId",
              "type": "uint256"
            },
            {
              "internalType": "bytes32",
              "name": "studentRecordsRoot",
              "type": "bytes32"
            },
            {
              "internalType": "string",
              "name": "IPFSHash",
              "type": "string"
            }
          ],
          "internalType": "struct ResultDapp.Batch",
          "name": "",
          "type": "tuple"
        }
      ],
      "stateMutability": "view",
      "type": "function",
      "constant": true
    },
    {
      "inputs": [],
      "name": "getAllBatches",
      "outputs": [
        {
          "components": [
            {
              "internalType": "uint256",
              "name": "batchId",
              "type": "uint256"
            },
            {
              "internalType": "bytes32",
              "name": "studentRecordsRoot",
              "type": "bytes32"
            },
            {
              "internalType": "string",
              "name": "IPFSHash",
              "type": "string"
            }
          ],
          "internalType": "struct ResultDapp.Batch[]",
          "name": "",
          "type": "tuple[]"
        }
      ],
      "stateMutability": "view",
      "type": "function",
      "constant": true
    },
    {
      "inputs": [
        {
          "internalType": "uint256",
          "name": "_batchId",
          "type": "uint256"
        },
        {
          "internalType": "bytes32",
          "name": "_leaf",
          "type": "bytes32"
        },
        {
          "internalType": "bytes32[]",
          "name": "_proof",
          "type": "bytes32[]"
        }
      ],
      "name": "verifyStudentRecord",
      "outputs": [
        {
          "internalType": "bool",
          "name": "",
          "type": "bool"
        }
      ],
      "stateMutability": "view",
      "type": "function",
      "constant": true
    }
  ],
  "bytecode": "0x608060405234801561001057600080fd5b5033600360006101000a81548173ffffffffffffffffffffffffffffffffffffffff021916908373ffffffffffffffffffffffffffffffffffffffff1602179055506119fa806100616000396000f3fe608060405234801561001057600080fd5b50600436106100935760003560e01c80635c60f226116100665780635c60f2261461013057806375a731a01461014c578063b56eebfb1461017c578063d1c0c3b51461019a578063e80e076b146101b657610093565b80630998c0ed14610098578063421b2d8b146100b45780634d813120146100d05780635ac4428214610100575b600080fd5b6100b260048036038101906100ad91906111a0565b6101d4565b005b6100ce60048036038101906100c991906110e7565b610367565b005b6100ea60048036038101906100e591906110e7565b61045d565b6040516100f7919061155f565b60405180910390f35b61011a60048036038101906101159190611110565b61058e565b60405161012791906115fa565b60405180910390f35b61014a600480360381019061014591906110e7565b6106ff565b005b61016660048036038101906101619190611139565b6109e6565b604051610173919061155f565b60405180910390f35b610184610aaf565b604051610191919061151b565b60405180910390f35b6101b460048036038101906101af91906111a0565b610b3d565b005b6101be610d09565b6040516101cb919061153d565b60405180910390f35b336101de8161045d565b806102365750600360009054906101000a900473ffffffffffffffffffffffffffffffffffffffff1673ffffffffffffffffffffffffffffffffffffffff168173ffffffffffffffffffffffffffffffffffffffff16145b610275576040517f08c379a000000000000000000000000000000000000000000000000000000000815260040161026c906115ba565b60405180910390fd5b60006001600086815260200190815260200160002054146102cb576040517f08c379a00000000000000000000000000000000000000000000000000000000081526004016102c29061157a565b60405180910390fd5b6000604051806060016040528086815260200185815260200184815250908060018154018082558091505060019003906000526020600020906003020160009091909190915060008201518160000155602082015181600101556040820151816002019080519060200190610341929190610ee3565b505050600080549050600160008681526020019081526020016000208190555050505050565b600360009054906101000a900473ffffffffffffffffffffffffffffffffffffffff1673ffffffffffffffffffffffffffffffffffffffff163373ffffffffffffffffffffffffffffffffffffffff16146103f7576040517f08c379a00000000000000000000000000000000000000000000000000000000081526004016103ee9061159a565b60405180910390fd5b6002819080600181540180825580915050600190039060005260206000200160009091909190916101000a81548173ffffffffffffffffffffffffffffffffffffffff021916908373ffffffffffffffffffffffffffffffffffffffff16021790555050565b6000600360009054906101000a900473ffffffffffffffffffffffffffffffffffffffff1673ffffffffffffffffffffffffffffffffffffffff168273ffffffffffffffffffffffffffffffffffffffff1614156104be5760019050610589565b60005b600280549050811015610583578273ffffffffffffffffffffffffffffffffffffffff166002828154811061051f577f4e487b7100000000000000000000000000000000000000000000000000000000600052603260045260246000fd5b9060005260206000200160009054906101000a900473ffffffffffffffffffffffffffffffffffffffff1673ffffffffffffffffffffffffffffffffffffffff161415610570576001915050610589565b808061057b90611898565b9150506104c1565b50600090505b919050565b610596610f69565b60006001600084815260200190815260200160002054905060008114156105f2576040517f08c379a00000000000000000000000000000000000000000000000000000000081526004016105e9906115da565b60405180910390fd5b6000600182610601919061179e565b81548110610638577f4e487b7100000000000000000000000000000000000000000000000000000000600052603260045260246000fd5b9060005260206000209060030201604051806060016040529081600082015481526020016001820154815260200160028201805461067590611866565b80601f01602080910402602001604051908101604052809291908181526020018280546106a190611866565b80156106ee5780601f106106c3576101008083540402835291602001916106ee565b820191906000526020600020905b8154815290600101906020018083116106d157829003601f168201915b505050505081525050915050919050565b600360009054906101000a900473ffffffffffffffffffffffffffffffffffffffff1673ffffffffffffffffffffffffffffffffffffffff163373ffffffffffffffffffffffffffffffffffffffff161461078f576040517f08c379a00000000000000000000000000000000000000000000000000000000081526004016107869061159a565b60405180910390fd5b60005b6002805490508110156109e2578173ffffffffffffffffffffffffffffffffffffffff16600282815481106107f0577f4e487b7100000000000000000000000000000000000000000000000000000000600052603260045260246000fd5b9060005260206000200160009054906101000a900473ffffffffffffffffffffffffffffffffffffffff1673ffffffffffffffffffffffffffffffffffffffff1614156109cf5760008190505b600160028054905061084f919061179e565b81101561095c5760026001826108659190611748565b8154811061089c577f4e487b7100000000000000000000000000000000000000000000000000000000600052603260045260246000fd5b9060005260206000200160009054906101000a900473ffffffffffffffffffffffffffffffffffffffff1660028281548110610901577f4e487b7100000000000000000000000000000000000000000000000000000000600052603260045260246000fd5b9060005260206000200160006101000a81548173ffffffffffffffffffffffffffffffffffffffff021916908373ffffffffffffffffffffffffffffffffffffffff160217905550808061095490611898565b91505061083d565b506002805480610995577f4e487b7100000000000000000000000000000000000000000000000000000000600052603160045260246000fd5b6001900381819060005260206000200160006101000a81549073ffffffffffffffffffffffffffffffffffffffff021916905590556109e2565b80806109da90611898565b915050610792565b5050565b600080600160008681526020019081526020016000205490506000811415610a43576040517f08c379a0000000000000000000000000000000000000000000000000000000008152600401610a3a906115da565b60405180910390fd5b610aa5836000600184610a56919061179e565b81548110610a8d577f4e487b7100000000000000000000000000000000000000000000000000000000600052603260045260246000fd5b90600052602060002090600302016001015486610e0e565b9150509392505050565b60606002805480602002602001604051908101604052809291908181526020018280548015610b3357602002820191906000526020600020905b8160009054906101000a900473ffffffffffffffffffffffffffffffffffffffff1673ffffffffffffffffffffffffffffffffffffffff1681526020019060010190808311610ae9575b5050505050905090565b33610b478161045d565b80610b9f5750600360009054906101000a900473ffffffffffffffffffffffffffffffffffffffff1673ffffffffffffffffffffffffffffffffffffffff168173ffffffffffffffffffffffffffffffffffffffff16145b610bde576040517f08c379a0000000000000000000000000000000000000000000000000000000008152600401610bd5906115ba565b60405180910390fd5b6000600160008681526020019081526020016000205490506000811415610c3a576040517f08c379a0000000000000000000000000000000000000000000000000000000008152600401610c31906115da565b60405180910390fd5b836000600183610c4a919061179e565b81548110610c81577f4e487b7100000000000000000000000000000000000000000000000000000000600052603260045260246000fd5b906000526020600020906003020160010181905550826000600183610ca6919061179e565b81548110610cdd577f4e487b7100000000000000000000000000000000000000000000000000000000600052603260045260246000fd5b90600052602060002090600302016002019080519060200190610d01929190610ee3565b505050505050565b60606000805480602002602001604051908101604052809291908181526020016000905b82821015610e0557838290600052602060002090600302016040518060600160405290816000820154815260200160018201548152602001600282018054610d7490611866565b80601f0160208091040260200160405190810160405280929190818152602001828054610da090611866565b8015610ded5780601f10610dc257610100808354040283529160200191610ded565b820191906000526020600020905b815481529060010190602001808311610dd057829003601f168201915b50505050508152505081526020019060010190610d2d565b50505050905090565b600082610e1b8584610e25565b1490509392505050565b60008082905060005b8451811015610e9657610e8182868381518110610e74577f4e487b7100000000000000000000000000000000000000000000000000000000600052603260045260246000fd5b6020026020010151610ea1565b91508080610e8e90611898565b915050610e2e565b508091505092915050565b6000818310610eb957610eb48284610ecc565b610ec4565b610ec38383610ecc565b5b905092915050565b600082600052816020526040600020905092915050565b828054610eef90611866565b90600052602060002090601f016020900481019282610f115760008555610f58565b82601f10610f2a57805160ff1916838001178555610f58565b82800160010185558215610f58579182015b82811115610f57578251825591602001919060010190610f3c565b5b509050610f659190610f8d565b5090565b60405180606001604052806000815260200160008019168152602001606081525090565b5b80821115610fa6576000816000905550600101610f8e565b5090565b6000610fbd610fb88461164d565b61161c565b90508083825260208201905082856020860282011115610fdc57600080fd5b60005b8581101561100c5781610ff28882611093565b845260208401935060208301925050600181019050610fdf565b5050509392505050565b600061102961102484611679565b61161c565b90508281526020810184848401111561104157600080fd5b61104c848285611824565b509392505050565b6000813590506110638161197f565b92915050565b600082601f83011261107a57600080fd5b813561108a848260208601610faa565b91505092915050565b6000813590506110a281611996565b92915050565b600082601f8301126110b957600080fd5b81356110c9848260208601611016565b91505092915050565b6000813590506110e1816119ad565b92915050565b6000602082840312156110f957600080fd5b600061110784828501611054565b91505092915050565b60006020828403121561112257600080fd5b6000611130848285016110d2565b91505092915050565b60008060006060848603121561114e57600080fd5b600061115c868287016110d2565b935050602061116d86828701611093565b925050604084013567ffffffffffffffff81111561118a57600080fd5b61119686828701611069565b9150509250925092565b6000806000606084860312156111b557600080fd5b60006111c3868287016110d2565b93505060206111d486828701611093565b925050604084013567ffffffffffffffff8111156111f157600080fd5b6111fd868287016110a8565b9150509250925092565b60006112138383611233565b60208301905092915050565b600061122b838361146c565b905092915050565b61123c816117d2565b82525050565b600061124d826116c9565b6112578185611704565b9350611262836116a9565b8060005b8381101561129357815161127a8882611207565b9750611285836116ea565b925050600181019050611266565b5085935050505092915050565b60006112ab826116d4565b6112b58185611715565b9350836020820285016112c7856116b9565b8060005b8581101561130357848403895281516112e4858261121f565b94506112ef836116f7565b925060208a019950506001810190506112cb565b50829750879550505050505092915050565b61131e816117e4565b82525050565b61132d816117f0565b82525050565b600061133e826116df565b6113488185611726565b9350611358818560208601611833565b6113618161196e565b840191505092915050565b6000611379601483611737565b91507f426174636820616c7265616479206578697374730000000000000000000000006000830152602082019050919050565b60006113b9602083611737565b91507f4f776e61626c653a2063616c6c6572206973206e6f7420746865206f776e65726000830152602082019050919050565b60006113f9601a83611737565b91507f596f75206e65656420746f2062652077686974656c69737465640000000000006000830152602082019050919050565b6000611439600f83611737565b91507f4261746368206e6f7420666f756e6400000000000000000000000000000000006000830152602082019050919050565b6000606083016000830151611484600086018261150c565b5060208301516114976020860182611324565b50604083015184820360408601526114af8282611333565b9150508091505092915050565b60006060830160008301516114d4600086018261150c565b5060208301516114e76020860182611324565b50604083015184820360408601526114ff8282611333565b9150508091505092915050565b6115158161181a565b82525050565b600060208201905081810360008301526115358184611242565b905092915050565b6000602082019050818103600083015261155781846112a0565b905092915050565b60006020820190506115746000830184611315565b92915050565b600060208201905081810360008301526115938161136c565b9050919050565b600060208201905081810360008301526115b3816113ac565b9050919050565b600060208201905081810360008301526115d3816113ec565b9050919050565b600060208201905081810360008301526115f38161142c565b9050919050565b6000602082019050818103600083015261161481846114bc565b905092915050565b6000604051905081810181811067ffffffffffffffff821117156116435761164261193f565b5b8060405250919050565b600067ffffffffffffffff8211156116685761166761193f565b5b602082029050602081019050919050565b600067ffffffffffffffff8211156116945761169361193f565b5b601f19601f8301169050602081019050919050565b6000819050602082019050919050565b6000819050602082019050919050565b600081519050919050565b600081519050919050565b600081519050919050565b6000602082019050919050565b6000602082019050919050565b600082825260208201905092915050565b600082825260208201905092915050565b600082825260208201905092915050565b600082825260208201905092915050565b60006117538261181a565b915061175e8361181a565b9250827fffffffffffffffffffffffffffffffffffffffffffffffffffffffffffffffff03821115611793576117926118e1565b5b828201905092915050565b60006117a98261181a565b91506117b48361181a565b9250828210156117c7576117c66118e1565b5b828203905092915050565b60006117dd826117fa565b9050919050565b60008115159050919050565b6000819050919050565b600073ffffffffffffffffffffffffffffffffffffffff82169050919050565b6000819050919050565b82818337600083830152505050565b60005b83811015611851578082015181840152602081019050611836565b83811115611860576000848401525b50505050565b6000600282049050600182168061187e57607f821691505b6020821081141561189257611891611910565b5b50919050565b60006118a38261181a565b91507fffffffffffffffffffffffffffffffffffffffffffffffffffffffffffffffff8214156118d6576118d56118e1565b5b600182019050919050565b7f4e487b7100000000000000000000000000000000000000000000000000000000600052601160045260246000fd5b7f4e487b7100000000000000000000000000000000000000000000000000000000600052602260045260246000fd5b7f4e487b7100000000000000000000000000000000000000000000000000000000600052604160045260246000fd5b6000601f19601f8301169050919050565b611988816117d2565b811461199357600080fd5b50565b61199f816117f0565b81146119aa57600080fd5b50565b6119b68161181a565b81146119c157600080fd5b5056fea2646970667358221220f3c8e2717a7e929c8b5825f246bfb4731a1092e3ffc5c35cda338ac0c5fc765264736f6c63430008000033",
  "immutableReferences": {},
  "source": "// SPDX-License-Identifier: MIT\r\npragma solidity ^0.8.0;\r\n\r\nimport \"./MerkleProof.sol\";\r\n\r\ncontract ResultDapp {\r\n\r\n    struct Batch {\r\n        uint256 batchId;\r\n        bytes32 studentRecordsRoot;\r\n        string IPFSHash;\r\n    }\r\n\r\n    Batch[] private batches;\r\n    mapping(uint256 => uint256) private batchIndex;\r\n    address[] private whitelistedAddresses;\r\n    address owner;\r\n\r\n    constructor() {\r\n        owner = msg.sender;\r\n    }\r\n\r\n    modifier onlyOwner() {\r\n        require(msg.sender == owner, \"Ownable: caller is not the owner\");\r\n        _;\r\n    }\r\n\r\n    modifier isWhitelisted(address _address) {\r\n        require(\r\n            verifyUser(_address) || _address == owner,\r\n            \"You need to be whitelisted\"\r\n        );\r\n        _;\r\n    }\r\n\r\n    function addUser(address _addressToWhitelist) public onlyOwner {\r\n        whitelistedAddresses.push(_addressToWhitelist);\r\n    }\r\n\r\n    function deleteUser(address _addressToUnwhitelist) public onlyOwner {\r\n        for (uint256 i = 0; i < whitelistedAddresses.length; i++) {\r\n            if (whitelistedAddresses[i] == _addressToUnwhitelist) {\r\n                for (uint256 j = i; j < whitelistedAddresses.length - 1; j++) {\r\n                    whitelistedAddresses[j] = whitelistedAddresses[j + 1];\r\n                }\r\n                whitelistedAddresses.pop();\r\n                break;\r\n            }\r\n        }\r\n    }\r\n\r\n    function verifyUser(address _address) public view returns (bool) {\r\n        if (_address == owner) return true;\r\n        for (uint256 i = 0; i < whitelistedAddresses.length; i++) {\r\n            if (whitelistedAddresses[i] == _address) {\r\n                return true;\r\n            }\r\n        }\r\n        return false;\r\n    }\r\n\r\n    function getAllWhitelistedAddresses()\r\n        public\r\n        view\r\n        returns (address[] memory)\r\n    {\r\n        return whitelistedAddresses;\r\n    }\r\n\r\n    function addBatch(\r\n        uint256 _batchId,\r\n        bytes32 _studentRecordsRoot,\r\n        string memory IPFSHash\r\n    ) public isWhitelisted(msg.sender) {\r\n        require(batchIndex[_batchId] == 0, \"Batch already exists\");\r\n        batches.push(Batch(_batchId, _studentRecordsRoot, IPFSHash));\r\n        batchIndex[_batchId] = batches.length;\r\n    }\r\n\r\n    function editBatch(\r\n        uint256 _batchId,\r\n        bytes32 _newBatchRoot,\r\n        string memory IPFSHash\r\n    ) public isWhitelisted(msg.sender) {\r\n        uint256 index = batchIndex[_batchId];\r\n        require(index != 0, \"Batch not found\");\r\n        batches[index - 1].studentRecordsRoot = _newBatchRoot;\r\n        batches[index - 1].IPFSHash = IPFSHash;\r\n    }\r\n\r\n    function getBatch(uint256 _batchId) public view returns (Batch memory) {\r\n        uint256 index = batchIndex[_batchId];\r\n        require(index != 0, \"Batch not found\");\r\n        return batches[index - 1];\r\n    }\r\n\r\n    function getAllBatches() public view returns (Batch[] memory) {\r\n        return batches;\r\n    }\r\n\r\n    function verifyStudentRecord(\r\n        uint256 _batchId,\r\n        bytes32 _leaf,\r\n        bytes32[] memory _proof\r\n    ) public view returns (bool) {\r\n        uint256 index = batchIndex[_batchId];\r\n        require(index != 0, \"Batch not found\");\r\n        return\r\n            MerkleProof.verify(\r\n                _proof,\r\n                batches[index - 1].studentRecordsRoot,\r\n                _leaf\r\n            );\r\n    }\r\n\r\n}\r\n",
  "sourcePath": "C:\\Users\\summanth\\Documents\\Blockchain\\ResultDappProject\\contracts\\ResultDapp.sol",
  "compiler": {
    "name": "solc",
    "version": "0.8.0+commit.c7dfd78e.Emscripten.clang"
  },
  "schemaVersion": "3.4.16",
  "updatedAt": "2024-05-22T05:43:30.070Z",
  "networkType": "ethereum",
  "devdoc": {
    "kind": "dev",
    "methods": {},
    "version": 1
  },
  "userdoc": {
    "kind": "user",
    "methods": {},
    "version": 1
  }
}